:020000040000FA
:10000000462A000000000000462A82075734653463
:100010006C3463346F346D34653420344534533478
:1000200052342034203431342E34303400348207BA
:1000300044342E34203442347534633463346934A8
:100040002034323430343234323400348207443491
:1000500043342034733468346F34723474342E343F
:100060002E342E34003482074F34733463342E34EC
:10007000203468346934673468342E34003482079D
:100080005234653473342E34203468346934673420
:1000900068342E34003482074534533452342034CB
:1000A0003D34203400348207663420343D3420341B
:1000B00032343034203448347A34003482076634A1
:1000C00020343D34203437343534203448347A34C5
:1000D00000348207663420343D34203432343034E6
:1000E0003034203448347A34003482076634203483
:1000F0003D342034353430343034203448347A348C
:1001000000348207663420343D34203431342034C6
:100110006B3448347A3400348207663420343D34FA
:100120002034323420346B3448347A34003482073B
:10013000663420343D342034353420346B34483434
:100140007A3400348207663420343D34203431342C
:10015000303420346B3448347A34003482076634C7
:1001600020343D3420343234303420346B3448343D
:100170007A3400348207663420343D3420343534F8
:10018000303420346B3448347A3400348207663497
:1001900020343D34203431343034303420346B3426
:1001A00048347A3400348207663420343D342034B5
:1001B00032343034303420346B3448347A340034C0
:1001C00082074134753474346F346D34613474345F
:1001D00069346334203443342C342034453453346C
:1001E0005234003482074534533452342034763448
:1001F0007334203466347234653471342E340034F0
:100200008207533465347434203444344334003426
:100210008207433420343D34203400348207423492
:100220006134743474346534723479340034820740
:1002300044346934613467346E346F3473347434E5
:1002400069346334003482070034083412341D34B6
:1002500027342B34323439343C34473452345D340F
:100260008207433468346F346F3473346534203418
:100270004434433420346234693461347334003498
:1002800082074434433420343D3420342D34323416
:1002900020345634003482074434433420343D340F
:1002A00020342D3431342E34353420345634003457
:1002B00082074434433420343D3420342D343134E7
:1002C00020345634003482074434433420343D34DF
:1002D00020342D3430342E34353420345634003428
:1002E00082074434433420343D3420342D343034B8
:1002F0002E343334203456340034820744344334AB
:1003000020343D34203430342034563420342834E2
:100310006F346634663429340034820744344334FD
:1003200020343D34203430342E34333420345634A9
:10033000003482074434433420343D342034303494
:100340002E34353420345634003482074434433458
:1003500020343D3420343134203456340034820784
:100360004434433420343D34203431342E34353455
:1003700020345634003482074434433420343D342E
:100380002034323420345634003482072D342D3456
:10039000003482074D3465346134733475347234FB
:1003A00069346E3467342134003482075234653442
:1003B000733469347334743461346E346334653443
:1003C000003482074334683461346E3467346534F2
:1003D0002034623461347434743465347234793462
:1003E0000034820753346F3475346E3464342034EF
:0E03F000613463347434693476346534003417
:100400008207593445345334003482074E344F3414
:1004100020340034FD1B8E2C0B307D020318262D5A
:1004200002308A007D0882078E2C8E2C9F2CAE2CE9
:10043000BD2CCC2CDB2CEA2CF92C082D172D262DCD
:10044000FC1BFC010B307C020318AD2E02308A002D
:100450007C088207372D592D7B2D9D2DBF2DE12D39
:10046000032E252E472E692E8B2EAD2ECE1BD42B80
:1004700005304E020318122C02308A004E08820703
:10048000D42BD42BE52BF42B032C122C8A15C7204C
:100490008A111E230130CE008A1547290318013E18
:1004A0008A00210808008A11552AA10100308A001B
:1004B0000530210700304E220520003A0319632A37
:1004C0003F27A10A562A6227A10100308A0017306F
:1004D000210700304E221720003A0319722A3F27C5
:1004E000A10A652A0800A10101308A00D530210740
:1004F00001304E22D521003A0319812A3F27A10A53
:10050000742A08005027A10101308A00E130210738
:1005100001304E22E121003A0319912A3F27A10A16
:10052000842A8A156B294308D7004208D80041085D
:10053000D9004008DA004308B0004208B1008A112F
:100540006227A10100308A004B30210700304E2283
:100550004B20003A0319AF2A3F27A10AA22AED2611
:100560003E27F4303F2753270430A1000310B10D7C
:10057000B00D0318C32AA10BB62A300803190130A5
:100580008A15E9220800FF308A15E9220800842331
:10059000071307108710071791237608F0007708D4
:1005A000F100080084230713071087100714912314
:1005B0007608F2007708F300080084230713071079
:1005C0008710871491237608F4007708F500080057
:1005D000C7227008233C031801347008F03C031C48
:1005E0000234D2227208B0007308B100B201B30124
:1005F0007508B1027408031C740FB0027008B400CF
:100600007108B5007308B5027208031C720FB402BA
:10061000031C03343408023C03180334DD22003485
:100620007D08063C0318192B2B303F2700303F274D
:1006300008002D303F2700303F27080053277D0852
:10064000063A0319382B8316031307110F30831250
:100650000313970064308316031392007D088A11F8
:100660002321831203139500831203131215622FA3
:1006700083160313071508004D277D08063A031952
:10068000512BA10100308A002630210700304E2274
:100690002620003A03194F2B3F27A10A422B662739
:1006A00008006227A10101308A00C530210701300E
:1006B0004E22C521003A0319602B3F27A10A532B74
:1006C000662708006227A10100308A003330210725
:1006D00000304E223320003A0319712B3F27A10A24
:1006E000642B662708006227A10100308A003F3092
:1006F000210700304E223F20003A0319822B3F276A
:10070000A10A752B6627080083120313871B862B0B
:10071000871B882B871B8A2B871F8C2B871F8E2B71
:100720000800662784231F14F601F7014030A1005A
:100730009F149F18992B831603131E08F707831223
:1007400003131E0803181E0FF607A10B982B0800B1
:10075000A10101308A000830210701304E22082112
:10076000003A0319B62B3F27A10AA92B5B08D70033
:100770005C08D8005D08D9005E08DA00ED263E2747
:1007800025083F2746303F27532708008A114D2769
:100790008A115A2736226627851BD22B7F08CE075F
:1007A000FF01C82B8A1547290130CE00A101003076
:1007B0008A00E030210700304E22E020003A031981
:1007C000E42B3F27A10AD72B0800A10100308A00A3
:1007D000F230210700304E22F220003A0319F32BA9
:1007E0003F27A10AE62B0800A10101308A00003052
:1007F000210701304E220021003A0319022C3F2725
:10080000A10AF52B0800A10101308A00F13021076F
:1008100001304E22F121003A0319112C3F27A10A81
:10082000042C08000530CE00A10101308A001730E9
:10083000210701304E221721003A0319222C3F27AD
:10084000A10A152C08008A11252CA10101308A006B
:100850000E30210701304E220E21003A0319332CAD
:100860003F27A10A262C08008A114D27A10101303B
:100870008A00F130210701304E22F121003A03199C
:10088000442C3F27A10A372C62277F08BE07FF01AF
:100890000130BE1BBE0002303E020318BE013E08FE
:1008A000031D642CA10102308A00003021070230B0
:1008B0004E220022003A0319602C3F27A10A532C34
:1008C0006627851FC62B442CA10102308A00053003
:1008D000210702304E220522003A0319722C3F27CD
:1008E000A10A652C602C8A114D27A10101308A00D4
:1008F0003030210701304E223021003A0319832C79
:100900003F27A10A762C8A1162277F08FD07FF0185
:100910008A110A226627851FC62B832C0130FD0011
:10092000A10101308A004030210701304E224021D0
:10093000003A03199E2C3F27A10A912C1E2BA101DE
:1009400001308A004B30210701304E224B21003A02
:100950000319AD2C3F27A10AA02C1E2BA1010130A9
:100960008A005830210701304E225821003A0319DD
:10097000BC2C3F27A10AAF2C1E2BA10101308A00FD
:100980006330210701304E226321003A0319CB2C3A
:100990003F27A10ABE2C1E2BA10101308A00703016
:1009A000210701304E227021003A0319DA2C3F272B
:1009B000A10ACD2C1E2BA10101308A007D30210718
:1009C00001304E227D21003A0319E92C3F27A10A6C
:1009D000DC2C1E2BA10101308A008D302107013053
:1009E0004E228D21003A0319F82C3F27A10AEB2C47
:1009F0001E2BA10101308A009930210701304E22BF
:100A00009921003A0319072D3F27A10AFA2C1E2B22
:100A1000A10101308A00A530210701304E22A52115
:100A2000003A0319162D3F27A10A092D1E2BA101FB
:100A300001308A00AF30210701304E22AF21003A49
:100A40000319252D3F27A10A182D1E2B0B30FD0061
:100A5000A10101308A00BB30210701304E22BB21A9
:100A6000003A0319362D3F27A10A292D1E2B4030AD
:100A7000FA00D630FB004030F8000030F9000830B2
:100A8000E5003C30EF008A1524216D30A5002708D1
:100A90000319582DA10100308A005330210700307E
:100AA0004E225320003A0319582D3F27A10A4B2DFF
:100AB00008004330FA002530FB004030F8000030D9
:100AC000F9001E30E500E230EF008A1524216D3078
:100AD000A500270803197A2DA10100308A005E3095
:100AE000210700304E225E20003A03197A2D3F275D
:100AF000A10A6D2D08004830FA006330FB00403039
:100B0000F8000030F9005230E5005B30EF008A1544
:100B10002421E430A500270803199C2DA1010030F1
:100B20008A006930210700304E226920003A0319FB
:100B30009C2D3F27A10A8F2D08005430FA00F83071
:100B4000FB004030F8000030F9000030E50035309F
:100B5000EF008A152421E430A50027080319BE2DD3
:100B6000A10100308A007530210700304E22752027
:100B7000003A0319BE2D3F27A10AB12D08006930A4
:100B8000FA00F030FB004030F8000030F90000308F
:100B9000E5006930EF008A152421E430A50027081C
:100BA0000319E02DA10100308A00813021070030B7
:100BB0004E228120003A0319E02D3F27A10AD32DB0
:100BC00008005330FA00E030FB004030F8000130FC
:100BD000F9000030E500D330EF008A152421E4301D
:100BE000A50027080319022EA10100308A008C30CD
:100BF000210700304E228C20003A0319022E3F2795
:100C0000A10AF52D08005130FA00B030FB00403049
:100C1000F8000330F9000230E5000F30EF008A15CC
:100C20002421E430A50027080319242EA101003057
:100C30008A009730210700304E229720003A03198E
:100C4000242E3F27A10A172E08006330FA006030D7
:100C5000FB004030F8000630F9000430E5001E309B
:100C6000EF008A152421E430A50027080319462E39
:100C7000A10100308A00A230210700304E22A220BC
:100C8000003A0319462E3F27A10A392E08004630A4
:100C9000FA00C030FB004030F8000D30F900083099
:100CA000E5003C30EF008A152421E430A500270838
:100CB0000319682EA10100308A00AE3021070030F0
:100CC0004E22AE20003A0319682E3F27A10A5B2E60
:100CD00008007030FA00E030FB004030F8002030AF
:100CE000F9001630E500A630EF008A152421E43023
:100CF000A500270803198A2EA10100308A00BA3006
:100D0000210700304E22BA20003A03198A2E3F27CD
:100D1000A10A7D2E08006130FA00C030FB0040308F
:100D2000F8004130F9003930E500A530EF008A15B0
:100D30002421E430A50027080319AC2EA1010030BE
:100D40008A00C630210700304E22C620003A03191F
:100D5000AC2E3F27A10A9F2E08000B30FC00433029
:100D6000FA008030FB004030F8008330F900943006
:100D7000E5003D30EF008A152421E430A500270866
:100D80000319D02EA10100308A00D3302107003092
:100D90004E22D320003A0319D02E3F27A10AC32E9A
:100DA00008008312031307120800831203130716A7
:100DB0000800A10101308A00C930210701304E220C
:100DC000C921003A0319E72E3F27A10ADA2E0800AD
:100DD0000F390319601803270800E0018A15002065
:100DE0008A11F22E500EE8265008E826510E0F39CF
:100DF00003272E303F2751080F390327520EE826CC
:100E00005208E8260800601483120313AA00FF307A
:100E1000AB002A089C3EAB0A03180A2F643EAA00C6
:100E2000FF30AC002A08F63EAC0A0318132F0A3E26
:100E3000AD002A102B082A181F2F0319222F303E2D
:100E40003F272A142C082A18272F03192A2F303E4F
:100E50003F272A142D08303E3F2F30308A11442F6F
:100E600002308A1144272830442F83120313A00034
:100E7000BE27B827200EBE27B827972F2030831211
:100E8000031306148A11472F8312031306108610CA
:100E90008A11352F0C308A11442F01308A11442FCA
:100EA00002308A11442F1030AA0020303F27AA0BAD
:100EB000552F08008A1150275327502F8A11622777
:100EC0005327622F403080388A11442F8316031332
:100ED0000516851683120313A3017F08031D08005E
:100EE00005081039FE009227050810397E060319FF
:100EF000852F051A802F851EFF0A851AFF0308001B
:100F0000851EFF03851AFF0A080083120313A30B33
:100F10006D2F080083120313A30192279227A30BBE
:100F20008D2F080083120313A20B942F0800831641
:100F30000313A001861706178616061683120313DD
:100F400006108614000006150310061A0314061175
:100F500000000615000006110318972F83160313CF
:100F600086130613861206128312031386100800D6
:100F7000831203130615000006110800A400831253
:100F800003138613061386120612241A8617A41A50
:0C0F90000617241B8616A41B061608007A
:101000002030D600D001D101D201D301D40150301B
:1010100084000530D5008A150D28333080078019EB
:10102000F039801B0F398002840AD50B0B28DA0DAA
:10103000D90DD80DD70DD40DD30DD20DD10DD00DA6
:10104000D60B072808008A11D12601308A15022202
:1010500000308A1502228A11D52608002030D500DA
:10106000B601B7010310B30DB20DB10DB00DB70D40
:10107000B60D0318432834083602031D41283508ED
:101080003702031C4A283508B702031CB60334088C
:10109000B6023314D50B3228080000004308C500FF
:1010A0004208C4004108C3004008C200C101C00199
:1010B0004508CB004408CA004308C9004208C800DC
:1010C0000830CC00C60C03187428CC0B6228CC0066
:1010D000C70C03187228CC0B6828C501C401C301D2
:1010E000C20100340310A12803108728C60C031C7A
:1010F00087284808C20749080318490FC3074A0848
:1011000003184A0FC4074B0803184B0FC507C50C3B
:10111000C40CC30CC20CC10CCC0B76280830CC001C
:10112000C70C031CA1284808C20749080318490F27
:10113000C3074A0803184A0FC4074B0803184B0F8C
:10114000C507C50CC40CC30CC20CC10CC00CCC0B25
:1011500090280000080040308A11442718308A1176
:101160003F2714308A113F2714308A113F271B3044
:101170008A113F2704308A113F2704308A113F2704
:1011800003308A113F2700308A113F270800831659
:10119000031788018316031789018312031386013D
:1011A0008316031386018312031705108316031396
:1011B00086010713071087108717851783120313FB
:1011C0008A15FD208A115322FC01BE010430FF0064
:1011D0000630FD008A118A278A118A278A118A27F8
:1011E0008A15E9218A156B218A150B228A1523207D
:1011F0008A118A278A118A2708008A112D278A11C5
:101200008A278A112D278A118A278A112D278A1168
:101210008A278A1130278A114A278A118A278A1138
:1012200030278A114A278A118A278A1130278A1182
:101230004A278A114A278A114A278A15AB208A1120
:101240004D278A11502708008A11D12621308A158E
:10125000022200308A1502227A088A1502227B08AF
:101260008A15022278088A15022279088A15022234
:10127000C0308A15022200308A15022220308A15D9
:10128000022200308A1502228A11D52608008A150A
:10129000492900304E060319612901304E06031911
:1012A000612902304E060319632903304E060319E3
:1012B000652904304E060319672905304E060319C7
:1012C00069298A15FD2A8A15AB2A8A11732C8A117D
:1012D000342C8A159F29831203131F158A118A271C
:1012E0008A1193238A114D271F117608C1007708B0
:1012F000C000C301C2010930C7007530C6008A159D
:101300004D204308D7004208D8004108D9004008C2
:10131000DA008A1123248A1162278A11ED268A11A4
:101320003E2756308A113F270430C302C31F9A2933
:101330008A11822A8A118A278A118A270800013095
:10134000A700FF018A11C7228A11D2228A11DD2249
:101350008A15AA297F08FC077F08031DB5298A156D
:10136000BC21851FC62B8A15A129FF018A114D2793
:101370008A1120228A15A1298A114D2741308A110C
:101380003F2770088A1103272C308A113F277108E4
:101390008A1103278A11622742308A113F27720877
:1013A0008A1103272C308A113F2773088A110327DB
:1013B0008A113E2743308A113F2774088A11032778
:1013C0002C308A113F2775088A1103278A113E277E
:1013D00008008316031305140515851583160317D6
:1013E0000814881408158815831603139F161F16F2
:1013F0009F17831203139F131F179F121F129F1112
:101400001F11080083120313930083160313141C87
:10141000072A13080800831603138711871207127F
:1014200083160313940114178312031314109410DA
:1014300014119411141694161413941308007D08B3
:10144000063A0319282A0E308A1163278A111023BD
:101450007208B0007308B100B201B3017508B1029F
:101460007408031C740FB0027008B4007108B50052
:101470007308B5027208031C720FB4028A152E207D
:101480003008C3003108C2003208C1003308C00070
:101490000530C700F530C6008A154D2008007008D9
:1014A000B0007108B100B201B3017508B10274084F
:1014B000031C740FB0027208B4007308B5007508FD
:1014C000B5027408031C740FB4028A152E2030086C
:1014D000C3003108C2003208C1003308C000013027
:1014E000C600C7014608C2024708031C470FC302D3
:1014F0000130C7000030C6008A154D208A15B82378
:101500001030C7000030C6008A154D204308B000D7
:101510004208B1004108B2004008B3006508B400B9
:101520006F08B5008A152E203008C3003108C200AC
:101530003208C1003308C0000330C700E830C600DD
:101540008A154D204308DB004208DC004108DD001D
:101550004008DE000034FF010130A7008A11E822B4
:10156000B8007F08FC074D272022851FC62B8A154F
:10157000B92A7F08031DAB2A3808031DC52A8A151E
:101580001F228A1193228A15AB2AC722AB2A380858
:10159000013A031DD02A8A113C238A15CF2A08005C
:1015A0003808023A031DD92A8A1162238A15D82ADB
:1015B00008003808033A031DE12A8A1173238A15AB
:1015C000E12A0800FC010230272B0B30FC0001301F
:1015D000272BA1003E08031D0800831603130513E3
:1015E0008312031305178A11922705138A11922774
:1015F0008A15FA2AA10BF22A08008A114D278A11AE
:10160000D9268A11622783120313A701AF01013083
:10161000A900FC01DF018A150D2BFF01FC1BE22A4A
:101620007C080C3C031CE52A8A1120228A11E8223E
:10163000851FC62B8A151C2BA800003A031D2B2BD7
:101640002E308A113F278A154F228A15272BA80092
:10165000003A03193E2B2908003A0319492BAF0021
:1016600003193C2B8A114D278A11D9268A1162272A
:101670008A153A2BAF01DF01FC0A462B2908003AF4
:10168000031D452B5F080319FC03FC032808A90070
:101690000B2B0130AF00DF008A1150278A11A823DD
:1016A0008A151F224308BD004208BC004108BB0048
:1016B0004008BA008A1162278A1560238A153C2BDC
:1016C0007C08CD0007307C020318762B0430031011
:1016D000FC078A1120228A11E8228A151F228A110A
:1016E00093228A157B234D08FC0008008A115E278F
:1016F0004D08FC0008004008BA024108031C410FD5
:10170000BB024208031C420FBC024308031C430FE8
:10171000BD02BD1F962BBA09BB09BC09BD09BA0A97
:101720000319BB0A0319BC0A0319BD0A0310C30C31
:10173000C20CC10CC00C0310C30CC20CC10CC00CF9
:101740004008BA024108031C410FBB024208031CB7
:10175000420FBC024308031C430FBD02BD1BB12B4B
:1017600008008A115A278A1173228A15B72B08009C
:10177000430D03180800F023F9231030EE00EA0DA2
:10178000EB0DEC0DED0DE60DE70DE80DEA0DEB0DA3
:10179000EC0DED0DE60DE70DE80D0314C00DC10DC8
:1017A000C20D42086802031DDB2B41086702031DBE
:1017B000DB2B40086602031CE82B4008E6024108C8
:1017C000031C410FE7024208031C420FE802C01449
:1017D0004010EE0BBF2B0310C20CC10CC00C080054
:1017E0004008EA004108EB004208EC004308ED0025
:1017F0000800E601E701E801E901C001C101C201F9
:04180000C301080018
:02400E00E43399
:00000001FF
